:1000000019C02BC02AC029C028C027C026C025C0BF
:1000100024C023C022C021C020C01FC01EC01DC0DC
:100020001CC01BC01AC019C018C017C016C015C00C
:1000300014C013C011241FBECFEFCDBFDFE3DEBF5E
:100040001FE3A0E8BFE3ECE7F4E002C005900D92E7
:10005000A238B107D9F7AFD10FC2D2CF892B21F087
:1000600080E480930504089580E480930604089555
:1000700090E890930604609324089091230897FFDA
:10008000FCCF90912408911102C01092803F8230E1
:1000900031F4409324088091230887FFFCCF80E847
:1000A000809305040895682F40E081E0E1CF1F931D
:1000B000CF93DF93682FC0E0D4E010E41E8340E0CC
:1000C00081E0D6DF1D83DF91CF911F91089587EAEC
:1000D00091E60197F1F700C00000089581E1E7DFA4
:1000E00087EA91E60197F1F700C0000081EBDFDFBE
:1000F00081E0D9DF8CE2D7DF8DE2D5DF82EBD7DF7D
:1001000082E0D1DF85E3CFDF86E3CDDF83EBCFDF96
:1001100081E0C9DF8CE2C7DF8DE2C5DF81E0C3DFAC
:100120008CE2C1DF8DE2BFDF84EBC1DF83E0BBDFA8
:1001300080ECBDDF82EAB7DF82E0B5DF84E8B3DFC1
:1001400081ECB5DF85ECAFDF82ECB1DF8AE0ABDFBD
:1001500080E0A9DF83ECABDF8AE8A5DF8AE2A3DFDA
:1001600084ECA5DF8AE89FDF8EEE9DDF85EC9FDFC4
:100170008EE099DF86E39BDF88EC95DF80EE97DFEA
:100180008FE091DF8AE18FDF8FE08DDF88E18BDF09
:100190008FE289DF88E287DF80E285DF82E283DF2A
:1001A0008FE181DF8BE17FDF83E27DDF87E37BDF30
:1001B00080E079DF87E077DF82E075DF80E173DF61
:1001C00081EE75DF8FE06FDF8BE16DDF8FE06BDF3E
:1001D00087E169DF83E367DF8CE265DF89E263DF64
:1001E0008EE261DF80E35FDF89E35DDF8FE35BDF6A
:1001F0008BE359DF80E057DF81E055DF84E053DF98
:1002000083E151DF8AE353DF85E04DDF89E24FCFA1
:100210000F931F93CF93DF93082F162FD42FC22F46
:100220008BE245DF80E03FDF802F3DDF80E03BDF7A
:10023000812F39DF8AE23BDF80E035DF8D2F33DF2E
:1002400080E031DF8C2F2FDF8CE2DF91CF911F9187
:100250000F912DCFCF93DF93D42FC52F482F50E090
:10026000862F90E080969A01BC01D2DF4D2F6C2F33
:1002700082E0DF91CF91FCCECF92DF92EF92FF929E
:100280000F931F93CF93DF93E82FF0E0E42EF12C30
:10029000862F90E08096C22FD0E09F012E0D3F1D4B
:1002A00021503109BC016C0F7D1F61507109AF01F4
:1002B000AFDFEC9E6001ED9ED00CFC9ED00C1124B3
:1002C000C0E0D0E0CC16DD0649F4DF91CF911F915C
:1002D0000F91FF90EF90DF90CF900895402F612F06
:1002E00082E0C6DE2196EECFEF92FF920F931F932E
:1002F000CF93DF9300D00F92CDB7DEB780E1898333
:100300004FEF5FEF69818AE3A5DF4FEF5FEF698110
:1003100086E4A0DF99819F5F9983903789F78AE30C
:1003200089834FEF5FEF60E1898194DF4FEF5FEFEB
:100330006FE689818FDF99819F5F9983963489F772
:100340008CE5E82EF12C80E290E08A839B838A8101
:100350009B81B7016AD002E1080F1CE39A819E508D
:10036000998340E050E06981812F74DF4FEF5FEFA8
:10037000602F812F6FDF8091803F811591F01F5F8B
:10038000153479F789E698E10197F1F700C000008C
:100390008A819B8101968A839B838C379105B9F66C
:1003A000D2CF0F900F900F90DF91CF911F910F91AF
:1003B000FF90EF900895E12C84E0F82EF7018189F9
:1003C0008460818B83898460838B86898460868B3B
:1003D00087898460878B8AEC8183C0E2D8E0898139
:1003E000898388818062888388818061888388810D
:1003F00081608883898184608983FFE32DE083E0C5
:10040000F15020408040E1F700C0000067DE00E0CE
:1004100010E020E840E860E080E02EDF65DF188231
:10042000F701108280E090E0089597FB072E16F404
:10043000009406D077FD08D00BD007FC05D03EF421
:10044000909581959F4F0895709561957F4F089580
:10045000AA1BBB1B51E107C0AA1FBB1FA617B707EA
:1004600010F0A61BB70B881F991F5A95A9F7809506
:0C0470009095BC01CD010895F894FFCFD9
:02047C0001007D
:00000001FF
